{
  "_format": "hh-sol-artifact-1",
  "contractName": "AirdropFactory",
  "sourceName": "contracts/AirdropFactory.sol",
  "abi": [
    {
      "inputs": [
        {
          "internalType": "address",
          "name": "implementation_",
          "type": "address"
        }
      ],
      "stateMutability": "nonpayable",
      "type": "constructor"
    },
    {
      "inputs": [
        {
          "internalType": "address",
          "name": "owner",
          "type": "address"
        }
      ],
      "name": "OwnableInvalidOwner",
      "type": "error"
    },
    {
      "inputs": [
        {
          "internalType": "address",
          "name": "account",
          "type": "address"
        }
      ],
      "name": "OwnableUnauthorizedAccount",
      "type": "error"
    },
    {
      "inputs": [
        {
          "internalType": "address",
          "name": "token",
          "type": "address"
        }
      ],
      "name": "SafeERC20FailedOperation",
      "type": "error"
    },
    {
      "anonymous": false,
      "inputs": [
        {
          "indexed": true,
          "internalType": "address",
          "name": "creator",
          "type": "address"
        },
        {
          "indexed": true,
          "internalType": "address",
          "name": "token",
          "type": "address"
        },
        {
          "indexed": true,
          "internalType": "address",
          "name": "airdropAddress",
          "type": "address"
        },
        {
          "indexed": false,
          "internalType": "bytes32",
          "name": "merkleRoot",
          "type": "bytes32"
        },
        {
          "indexed": false,
          "internalType": "string",
          "name": "metadataURI",
          "type": "string"
        },
        {
          "indexed": false,
          "internalType": "uint256",
          "name": "timestamp",
          "type": "uint256"
        },
        {
          "indexed": false,
          "internalType": "uint256",
          "name": "totalAmount",
          "type": "uint256"
        }
      ],
      "name": "AirdropCreated",
      "type": "event"
    },
    {
      "anonymous": false,
      "inputs": [
        {
          "indexed": true,
          "internalType": "address",
          "name": "previousOwner",
          "type": "address"
        },
        {
          "indexed": true,
          "internalType": "address",
          "name": "newOwner",
          "type": "address"
        }
      ],
      "name": "OwnershipTransferred",
      "type": "event"
    },
    {
      "inputs": [
        {
          "internalType": "address",
          "name": "token",
          "type": "address"
        },
        {
          "internalType": "bytes32",
          "name": "merkleRoot",
          "type": "bytes32"
        },
        {
          "internalType": "string",
          "name": "metadataURI",
          "type": "string"
        },
        {
          "internalType": "uint256",
          "name": "totalAmount",
          "type": "uint256"
        }
      ],
      "name": "createAirdropAndFund",
      "outputs": [
        {
          "internalType": "address",
          "name": "airdropAddress",
          "type": "address"
        }
      ],
      "stateMutability": "nonpayable",
      "type": "function"
    },
    {
      "inputs": [
        {
          "internalType": "bytes32",
          "name": "",
          "type": "bytes32"
        },
        {
          "internalType": "address",
          "name": "token",
          "type": "address"
        },
        {
          "internalType": "bytes32",
          "name": "merkleRoot",
          "type": "bytes32"
        },
        {
          "internalType": "string",
          "name": "metadataURI",
          "type": "string"
        },
        {
          "internalType": "uint256",
          "name": "totalAmount",
          "type": "uint256"
        }
      ],
      "name": "createDeterministicAirdropAndFund",
      "outputs": [
        {
          "internalType": "address",
          "name": "airdropAddress",
          "type": "address"
        }
      ],
      "stateMutability": "nonpayable",
      "type": "function"
    },
    {
      "inputs": [],
      "name": "getImplementation",
      "outputs": [
        {
          "internalType": "address",
          "name": "",
          "type": "address"
        }
      ],
      "stateMutability": "view",
      "type": "function"
    },
    {
      "inputs": [],
      "name": "implementation",
      "outputs": [
        {
          "internalType": "address",
          "name": "",
          "type": "address"
        }
      ],
      "stateMutability": "view",
      "type": "function"
    },
    {
      "inputs": [],
      "name": "owner",
      "outputs": [
        {
          "internalType": "address",
          "name": "",
          "type": "address"
        }
      ],
      "stateMutability": "view",
      "type": "function"
    },
    {
      "inputs": [
        {
          "internalType": "bytes32",
          "name": "salt",
          "type": "bytes32"
        }
      ],
      "name": "predictCloneAddress",
      "outputs": [
        {
          "internalType": "address",
          "name": "predictedAddress",
          "type": "address"
        }
      ],
      "stateMutability": "view",
      "type": "function"
    },
    {
      "inputs": [],
      "name": "renounceOwnership",
      "outputs": [],
      "stateMutability": "nonpayable",
      "type": "function"
    },
    {
      "inputs": [
        {
          "internalType": "address",
          "name": "newOwner",
          "type": "address"
        }
      ],
      "name": "transferOwnership",
      "outputs": [],
      "stateMutability": "nonpayable",
      "type": "function"
    }
  ],
  "bytecode": "0x60a03461014557601f611a9738819003918201601f19168301916001600160401b0383118484101761014a5780849260209460405283398101031261014557516001600160a01b03811680820361014557331561012f5760008054336001600160a01b0319821681178355604051939290916001600160a01b0316907f8be0079c531659141344cd1fd0a4f28419497f9722a3daafe3b4186f6b6457e09080a3156100c75750608052604051611936908161016182396080518181816101a001526102f00152f35b62461bcd60e51b815260206004820152603560248201527f41697264726f70466163746f72793a20696d706c656d656e746174696f6e206360448201527f616e6e6f74206265207a65726f206164647265737300000000000000000000006064820152608490fd5b631e4fbdf760e01b600052600060045260246000fd5b600080fd5b634e487b7160e01b600052604160045260246000fdfe6080604052600436101561001257600080fd5b60003560e01c80635c60da1b146102da578063715018a6146102815780638da5cb5b14610258578063aaf10f4214610253578063d71fd68814610206578063e24ba9ce1461016c578063ebb2d662146101025763f2fde38b1461007457600080fd5b346100fd5760203660031901126100fd5761008d61031f565b610095610616565b6001600160a01b031680156100e757600080546001600160a01b03198116831782556001600160a01b0316907f8be0079c531659141344cd1fd0a4f28419497f9722a3daafe3b4186f6b6457e09080a3005b631e4fbdf760e01b600052600060045260246000fd5b600080fd5b346100fd5760a03660031901126100fd576024356001600160a01b03811681036100fd5760643567ffffffffffffffff81116100fd5760209161014c61015a923690600401610335565b906084359260443590610384565b6040516001600160a01b039091168152f35b346100fd5760203660031901126100fd5760206040513060388201526f5af43d82803e903d91602b57fd5bf3ff60248201527f00000000000000000000000000000000000000000000000000000000000000006014820152733d602d80600a3d3981f3363d3d373d3d3d363d73815260043560588201526037600c82012060788201526055604360018060a01b0392012016604051908152f35b346100fd5760803660031901126100fd5761021f61031f565b60443567ffffffffffffffff81116100fd5760209161024561015a923690600401610335565b906064359260243590610384565b6102da565b346100fd5760003660031901126100fd576000546040516001600160a01b039091168152602090f35b346100fd5760003660031901126100fd5761029a610616565b600080546001600160a01b0319811682556001600160a01b03167f8be0079c531659141344cd1fd0a4f28419497f9722a3daafe3b4186f6b6457e08280a3005b346100fd5760003660031901126100fd576040517f00000000000000000000000000000000000000000000000000000000000000006001600160a01b03168152602090f35b600435906001600160a01b03821682036100fd57565b9181601f840112156100fd5782359167ffffffffffffffff83116100fd57602083818601950101116100fd57565b908060209392818452848401376000828201840152601f01601f1916010190565b9294936001600160a01b03909316929183156105bc578115610564578215610500576040516112ea80820182811067ffffffffffffffff8211176104ea578291610640833986815233602082015284604082015260a060608201528560806103f060a084018c88610363565b92015203906000f080156104de5760018060a01b031695604051602081016323b872dd60e01b81523360248301528860448301528560648301526064825260a082019082821067ffffffffffffffff8311176104ea57602092600092604052519082895af1156104de576000513d6104d55750843b155b6104c057916104ac7f57f53e5b2a6559bceb9a6676747380d93a4ff42cb4acecce1c1df6052bdbac209288969594604051938452608060208501526080840191610363565b9242604083015260608201528033930390a4565b84635274afe760e01b60005260045260246000fd5b60011415610467565b6040513d6000823e3d90fd5b634e487b7160e01b600052604160045260246000fd5b60405162461bcd60e51b815260206004820152603660248201527f41697264726f70466163746f72793a20746f74616c20616d6f756e74206d7573604482015275742062652067726561746572207468616e207a65726f60501b6064820152608490fd5b60405162461bcd60e51b815260206004820152602a60248201527f41697264726f70466163746f72793a206d65726b6c6520726f6f742063616e6e6044820152696f74206265207a65726f60b01b6064820152608490fd5b60405162461bcd60e51b815260206004820152602c60248201527f41697264726f70466163746f72793a20746f6b656e2063616e6e6f742062652060448201526b7a65726f206164647265737360a01b6064820152608490fd5b6000546001600160a01b0316330361062a57565b63118cdaa760e01b6000523360045260246000fdfe610120604052346104d6576112ea8038038061001a816104f1565b92833981019060a0818303126104d65761003381610516565b9061004060208201610516565b60408201516060830151919490916001600160401b0381116104d65783019281601f850112156104d6578351906001600160401b0382116104db5761008e601f8301601f19166020016104f1565b948286526020860193602084830101116104d6576080928460206100b2930161052a565b01516001600160a01b039095169485156104c057600080546001600160a01b0319811688178255604051969188916001600160a01b0316907f8be0079c531659141344cd1fd0a4f28419497f9722a3daafe3b4186f6b6457e09080a36001600160a01b031694851561046a575060009083156104135780156103a857608086905260a084905284516001600160401b03811161039457600154600181811c9116801561038a575b602082101461037657601f8111610313575b50806020601f82116001146102b05784916102a5575b508160011b916000199060031b1c1916176001555b8060c05262093a80420191824211610291579160c093917f0f026cc5e496ec1aa52ab3320a7b6110edac008119e5ee626ff14829bcdc39739695938260e0525081610100526101ff604051968795865260a060208701525180948160a08801528787019061052a565b6040840152606083018190526080830152601f01601f19168101030190a3604051610d9c908161054e823960805181818160e5015281816101f7015281816107d30152610a1f015260a0518181816105c00152610760015260c051816109d0015260e0518181816105850152818161064a0152610c5d0152610100518181816101bd015281816103b70152610c9f0152f35b634e487b7160e01b81526011600452602490fd5b905086015138610181565b600185528085209150601f198316855b8181106102fb575090836001949392106102e2575b5050811b01600155610196565b88015160001960f88460031b161c1916905538806102d5565b9192602060018192868d0151815501940192016102c0565b600184527fb10e2d527612073b26eecdfd717e6a320cf44b4afac2b0732d9fcbe2b7fa0cf6601f830160051c8101916020841061036c575b601f0160051c01905b818110610361575061016b565b848155600101610354565b909150819061034b565b634e487b7160e01b84526022600452602484fd5b90607f1690610159565b634e487b7160e01b83526041600452602483fd5b60405162461bcd60e51b815260206004820152603560248201527f4d65726b6c6541697264726f703a20746f74616c20616d6f756e74206d75737460448201527f2062652067726561746572207468616e207a65726f00000000000000000000006064820152608490fd5b60405162461bcd60e51b815260206004820152602960248201527f4d65726b6c6541697264726f703a206d65726b6c6520726f6f742063616e6e6f60448201526874206265207a65726f60b81b6064820152608490fd5b62461bcd60e51b815260206004820152602b60248201527f4d65726b6c6541697264726f703a20746f6b656e2063616e6e6f74206265207a60448201526a65726f206164647265737360a81b6064820152608490fd5b631e4fbdf760e01b600052600060045260246000fd5b600080fd5b634e487b7160e01b600052604160045260246000fd5b6040519190601f01601f191682016001600160401b038111838210176104db57604052565b51906001600160a01b03821682036104d657565b60005b83811061053d5750506000910152565b818101518382015260200161052d56fe608080604052600436101561001357600080fd5b60003560e01c90816303ee438c14610a955750806312065fe0146109f35780631a39d8ef146109b85780632e7ba6ef146105e35780632eb4a7ab146105a85780633ba86c441461056d5780634fc31cbb146104ba578063715018a6146104615780638da5cb5b1461043857806392f1db671461041d5780639e34070f146103da578063aa082a9d1461039f578063d263277b1461037c578063ee38db95146101a2578063f2fde38b146101195763fc0c546a146100cf57600080fd5b34610114576000366003190112610114576040517f00000000000000000000000000000000000000000000000000000000000000006001600160a01b03168152602090f35b600080fd5b3461011457602036600319011261011457610132610bea565b61013a610d66565b6001600160a01b0316801561018c57600080546001600160a01b03198116831782556001600160a01b0316907f8be0079c531659141344cd1fd0a4f28419497f9722a3daafe3b4186f6b6457e09080a3005b631e4fbdf760e01b600052600060045260246000fd5b34610114576000366003190112610114576101bb610d66565b7f00000000000000000000000000000000000000000000000000000000000000004210610325576040516370a0823160e01b81523060048201527f00000000000000000000000000000000000000000000000000000000000000006020826024816001600160a01b0385165afa918215610319576000926102e2575b508115610291576000546102569183916001600160a01b031690610cd5565b6000546040519182526001600160a01b0316907f7084f5476618d8e60b11ef0d7d3f06914655adb8793e28ff7f018d4c76d505d590602090a2005b60405162461bcd60e51b8152602060048201526024808201527f4d65726b6c6541697264726f703a206e6f20746f6b656e7320746f20776974686044820152636472617760e01b6064820152608490fd5b90916020823d602011610311575b816102fd60209383610c00565b8101031261030e5750519082610237565b80fd5b3d91506102f0565b6040513d6000823e3d90fd5b60405162461bcd60e51b815260206004820152602960248201527f4d65726b6c6541697264726f703a207769746864726177616c206e6f742079656044820152681d08185b1b1bddd95960ba1b6064820152608490fd5b34610114576000366003190112610114576020610397610c9d565b604051908152f35b346101145760003660031901126101145760206040517f00000000000000000000000000000000000000000000000000000000000000008152f35b346101145760203660031901126101145760206104136004358060081c6000526002602052600160ff60406000205492161b8091161490565b6040519015158152f35b34610114576000366003190112610114576020610397610c5b565b34610114576000366003190112610114576000546040516001600160a01b039091168152602090f35b346101145760003660031901126101145761047a610d66565b600080546001600160a01b0319811682556001600160a01b03167f8be0079c531659141344cd1fd0a4f28419497f9722a3daafe3b4186f6b6457e08280a3005b346101145760a0366003190112610114576104d3610bea565b506104dc610bd4565b5060643567ffffffffffffffff8111610114573660238201121561011457806004013567ffffffffffffffff811161011457369101602401116101145760405162461bcd60e51b815260206004820152602660248201527f4d65726b6c6541697264726f703a2075736520636f6e7374727563746f7220696044820152651b9cdd19585960d21b6064820152608490fd5b346101145760003660031901126101145760206040517f00000000000000000000000000000000000000000000000000000000000000008152f35b346101145760003660031901126101145760206040517f00000000000000000000000000000000000000000000000000000000000000008152f35b34610114576080366003190112610114576004356105ff610bd4565b6044356064359267ffffffffffffffff841161011457366023850112156101145783600401359367ffffffffffffffff8511610114578460051b9160248383010191368311610114577f00000000000000000000000000000000000000000000000000000000000000004211610967576001600160a01b03861692338403610910576106a5838060081c6000526002602052600160ff60406000205492161b8091161490565b6108bf5785156108625760405160208101908482526bffffffffffffffffffffffff198960601b166040820152876054820152605481526106e7607482610c00565b519020916000986106fe6020604051980188610c00565b8652602401602086015b828210610852575050509386945b84518610156107595760208660051b86010151908181106000146107485788526020526001604088205b950194610716565b908852602052600160408820610740565b87945086907f00000000000000000000000000000000000000000000000000000000000000000361080157816107f77f4ec90e965519d92681267467f775ada5bd214aa92c0dc93d90a5e880ce9ed026936020938660081c808a526002865260408a2054908a5260028652600160ff89161b1760408a20557f0000000000000000000000000000000000000000000000000000000000000000610cd5565b604051908152a380f35b60405162461bcd60e51b815260206004820152602360248201527f4d65726b6c6541697264726f703a20696e76616c6964206d65726b6c6520707260448201526237b7b360e91b6064820152608490fd5b8135815260209182019101610708565b60405162461bcd60e51b815260206004820152602f60248201527f4d65726b6c6541697264726f703a20616d6f756e74206d75737420626520677260448201526e6561746572207468616e207a65726f60881b6064820152608490fd5b60405162461bcd60e51b815260206004820152602360248201527f4d65726b6c6541697264726f703a2064726f7020616c726561647920636c61696044820152621b595960ea1b6064820152608490fd5b60405162461bcd60e51b815260206004820152602960248201527f4d65726b6c6541697264726f703a2063616c6c6572206d75737420626520746860448201526819481858d8dbdd5b9d60ba1b6064820152608490fd5b60405162461bcd60e51b815260206004820152602360248201527f4d65726b6c6541697264726f703a20636c61696d20706572696f6420657870696044820152621c995960ea1b6064820152608490fd5b346101145760003660031901126101145760206040517f00000000000000000000000000000000000000000000000000000000000000008152f35b34610114576000366003190112610114576040516370a0823160e01b81523060048201526020816024817f00000000000000000000000000000000000000000000000000000000000000006001600160a01b03165afa801561031957600090610a62575b602090604051908152f35b506020813d602011610a8d575b81610a7c60209383610c00565b810103126101145760209051610a57565b3d9150610a6f565b34610114576000366003190112610114576000600154908160011c91600181168015610bca575b602084108114610bb6578385528492918115610b975750600114610b36575b610ae792500382610c00565b60405190602082528181519182602083015260005b838110610b1e5750508160006040809484010152601f80199101168101030190f35b60208282018101516040878401015285935001610afc565b509060016000527fb10e2d527612073b26eecdfd717e6a320cf44b4afac2b0732d9fcbe2b7fa0cf6906000915b818310610b7b575050906020610ae792820101610adb565b6020919350806001915483858801015201910190918392610b63565b60209250610ae794915060ff191682840152151560051b820101610adb565b634e487b7160e01b83526022600452602483fd5b92607f1692610abc565b602435906001600160a01b038216820361011457565b600435906001600160a01b038216820361011457565b90601f8019910116810190811067ffffffffffffffff821117610c2257604052565b634e487b7160e01b600052604160045260246000fd5b91908203918211610c4557565b634e487b7160e01b600052601160045260246000fd5b7f000000000000000000000000000000000000000000000000000000000000000080421015610c9757610c9362015180914290610c38565b0490565b50600090565b7f000000000000000000000000000000000000000000000000000000000000000080421015610c9757610c9362015180914290610c38565b60405163a9059cbb60e01b60208281019182526001600160a01b0390941660248301526044808301959095529381529092600091610d14606482610c00565b519082855af115610319576000513d610d5d57506001600160a01b0381163b155b610d3c5750565b635274afe760e01b60009081526001600160a01b0391909116600452602490fd5b60011415610d35565b6000546001600160a01b03163303610d7a57565b63118cdaa760e01b6000523360045260246000fdfea164736f6c634300081c000aa164736f6c634300081c000a",
  "linkReferences": {},
  "deployedLinkReferences": {}
}