{
  "_format": "hh-sol-artifact-1",
  "contractName": "MockERC20",
  "sourceName": "contracts/mocks/MockERC20.sol",
  "abi": [
    {
      "inputs": [
        {
          "internalType": "string",
          "name": "name",
          "type": "string"
        },
        {
          "internalType": "string",
          "name": "symbol",
          "type": "string"
        },
        {
          "internalType": "uint8",
          "name": "decimals_",
          "type": "uint8"
        },
        {
          "internalType": "uint256",
          "name": "initialSupply",
          "type": "uint256"
        }
      ],
      "stateMutability": "nonpayable",
      "type": "constructor"
    },
    {
      "inputs": [
        {
          "internalType": "address",
          "name": "spender",
          "type": "address"
        },
        {
          "internalType": "uint256",
          "name": "allowance",
          "type": "uint256"
        },
        {
          "internalType": "uint256",
          "name": "needed",
          "type": "uint256"
        }
      ],
      "name": "ERC20InsufficientAllowance",
      "type": "error"
    },
    {
      "inputs": [
        {
          "internalType": "address",
          "name": "sender",
          "type": "address"
        },
        {
          "internalType": "uint256",
          "name": "balance",
          "type": "uint256"
        },
        {
          "internalType": "uint256",
          "name": "needed",
          "type": "uint256"
        }
      ],
      "name": "ERC20InsufficientBalance",
      "type": "error"
    },
    {
      "inputs": [
        {
          "internalType": "address",
          "name": "approver",
          "type": "address"
        }
      ],
      "name": "ERC20InvalidApprover",
      "type": "error"
    },
    {
      "inputs": [
        {
          "internalType": "address",
          "name": "receiver",
          "type": "address"
        }
      ],
      "name": "ERC20InvalidReceiver",
      "type": "error"
    },
    {
      "inputs": [
        {
          "internalType": "address",
          "name": "sender",
          "type": "address"
        }
      ],
      "name": "ERC20InvalidSender",
      "type": "error"
    },
    {
      "inputs": [
        {
          "internalType": "address",
          "name": "spender",
          "type": "address"
        }
      ],
      "name": "ERC20InvalidSpender",
      "type": "error"
    },
    {
      "inputs": [
        {
          "internalType": "address",
          "name": "owner",
          "type": "address"
        }
      ],
      "name": "OwnableInvalidOwner",
      "type": "error"
    },
    {
      "inputs": [
        {
          "internalType": "address",
          "name": "account",
          "type": "address"
        }
      ],
      "name": "OwnableUnauthorizedAccount",
      "type": "error"
    },
    {
      "anonymous": false,
      "inputs": [
        {
          "indexed": true,
          "internalType": "address",
          "name": "owner",
          "type": "address"
        },
        {
          "indexed": true,
          "internalType": "address",
          "name": "spender",
          "type": "address"
        },
        {
          "indexed": false,
          "internalType": "uint256",
          "name": "value",
          "type": "uint256"
        }
      ],
      "name": "Approval",
      "type": "event"
    },
    {
      "anonymous": false,
      "inputs": [
        {
          "indexed": true,
          "internalType": "address",
          "name": "previousOwner",
          "type": "address"
        },
        {
          "indexed": true,
          "internalType": "address",
          "name": "newOwner",
          "type": "address"
        }
      ],
      "name": "OwnershipTransferred",
      "type": "event"
    },
    {
      "anonymous": false,
      "inputs": [
        {
          "indexed": true,
          "internalType": "address",
          "name": "from",
          "type": "address"
        },
        {
          "indexed": true,
          "internalType": "address",
          "name": "to",
          "type": "address"
        },
        {
          "indexed": false,
          "internalType": "uint256",
          "name": "value",
          "type": "uint256"
        }
      ],
      "name": "Transfer",
      "type": "event"
    },
    {
      "inputs": [
        {
          "internalType": "address",
          "name": "owner",
          "type": "address"
        },
        {
          "internalType": "address",
          "name": "spender",
          "type": "address"
        }
      ],
      "name": "allowance",
      "outputs": [
        {
          "internalType": "uint256",
          "name": "",
          "type": "uint256"
        }
      ],
      "stateMutability": "view",
      "type": "function"
    },
    {
      "inputs": [
        {
          "internalType": "address",
          "name": "spender",
          "type": "address"
        },
        {
          "internalType": "uint256",
          "name": "value",
          "type": "uint256"
        }
      ],
      "name": "approve",
      "outputs": [
        {
          "internalType": "bool",
          "name": "",
          "type": "bool"
        }
      ],
      "stateMutability": "nonpayable",
      "type": "function"
    },
    {
      "inputs": [
        {
          "internalType": "address",
          "name": "account",
          "type": "address"
        }
      ],
      "name": "balanceOf",
      "outputs": [
        {
          "internalType": "uint256",
          "name": "",
          "type": "uint256"
        }
      ],
      "stateMutability": "view",
      "type": "function"
    },
    {
      "inputs": [],
      "name": "decimals",
      "outputs": [
        {
          "internalType": "uint8",
          "name": "",
          "type": "uint8"
        }
      ],
      "stateMutability": "view",
      "type": "function"
    },
    {
      "inputs": [
        {
          "internalType": "address",
          "name": "to",
          "type": "address"
        },
        {
          "internalType": "uint256",
          "name": "amount",
          "type": "uint256"
        }
      ],
      "name": "mint",
      "outputs": [],
      "stateMutability": "nonpayable",
      "type": "function"
    },
    {
      "inputs": [
        {
          "internalType": "uint256",
          "name": "amount",
          "type": "uint256"
        }
      ],
      "name": "mint",
      "outputs": [],
      "stateMutability": "nonpayable",
      "type": "function"
    },
    {
      "inputs": [],
      "name": "name",
      "outputs": [
        {
          "internalType": "string",
          "name": "",
          "type": "string"
        }
      ],
      "stateMutability": "view",
      "type": "function"
    },
    {
      "inputs": [],
      "name": "owner",
      "outputs": [
        {
          "internalType": "address",
          "name": "",
          "type": "address"
        }
      ],
      "stateMutability": "view",
      "type": "function"
    },
    {
      "inputs": [],
      "name": "renounceOwnership",
      "outputs": [],
      "stateMutability": "nonpayable",
      "type": "function"
    },
    {
      "inputs": [],
      "name": "symbol",
      "outputs": [
        {
          "internalType": "string",
          "name": "",
          "type": "string"
        }
      ],
      "stateMutability": "view",
      "type": "function"
    },
    {
      "inputs": [],
      "name": "totalSupply",
      "outputs": [
        {
          "internalType": "uint256",
          "name": "",
          "type": "uint256"
        }
      ],
      "stateMutability": "view",
      "type": "function"
    },
    {
      "inputs": [
        {
          "internalType": "address",
          "name": "to",
          "type": "address"
        },
        {
          "internalType": "uint256",
          "name": "value",
          "type": "uint256"
        }
      ],
      "name": "transfer",
      "outputs": [
        {
          "internalType": "bool",
          "name": "",
          "type": "bool"
        }
      ],
      "stateMutability": "nonpayable",
      "type": "function"
    },
    {
      "inputs": [
        {
          "internalType": "address",
          "name": "from",
          "type": "address"
        },
        {
          "internalType": "address",
          "name": "to",
          "type": "address"
        },
        {
          "internalType": "uint256",
          "name": "value",
          "type": "uint256"
        }
      ],
      "name": "transferFrom",
      "outputs": [
        {
          "internalType": "bool",
          "name": "",
          "type": "bool"
        }
      ],
      "stateMutability": "nonpayable",
      "type": "function"
    },
    {
      "inputs": [
        {
          "internalType": "address",
          "name": "newOwner",
          "type": "address"
        }
      ],
      "name": "transferOwnership",
      "outputs": [],
      "stateMutability": "nonpayable",
      "type": "function"
    }
  ],
  "bytecode": "0x60806040523461042257610d1c8038038061001981610427565b9283398101906080818303126104225780516001600160401b038111610422578261004591830161044c565b602082015190926001600160401b0382116104225761006591830161044c565b9060408101519060ff82168203610422576060015183519091906001600160401b03811161032b57600354600181811c91168015610418575b602082101461030b57601f81116103b3575b50602094601f821160011461034c57948192939495600092610341575b50508160011b916000199060031b1c1916176003555b82516001600160401b03811161032b57600454600181811c91168015610321575b602082101461030b57601f81116102a6575b506020601f821160011461023f5781929394600092610234575b50508160011b916000199060031b1c1916176004555b331561021e5760055490336001600160a01b0383167f8be0079c531659141344cd1fd0a4f28419497f9722a3daafe3b4186f6b6457e0600080a36001600160a81b03199091163360ff60a01b19161760a09190911b60ff60a01b161760055560025460009082810190811061020a5760025550336000526000602052604060002081815401905560405190815260007fddf252ad1be2c89b69c2b068fc378daa952ba7f163c4a11628f55a4df523b3ef60203393a360405161086490816104b88239f35b634e487b7160e01b82526011600452602482fd5b631e4fbdf760e01b600052600060045260246000fd5b015190503880610130565b601f198216906004600052806000209160005b81811061028e57509583600195969710610275575b505050811b01600455610146565b015160001960f88460031b161c19169055388080610267565b9192602060018192868b015181550194019201610252565b60046000527f8a35acfbc15ff81a39ae7d344fd709f28e8600b4aa8c65c6b64bfe7fe36bd19b601f830160051c81019160208410610301575b601f0160051c01905b8181106102f55750610116565b600081556001016102e8565b90915081906102df565b634e487b7160e01b600052602260045260246000fd5b90607f1690610104565b634e487b7160e01b600052604160045260246000fd5b0151905038806100cd565b601f198216956003600052806000209160005b88811061039b57508360019596979810610382575b505050811b016003556100e3565b015160001960f88460031b161c19169055388080610374565b9192602060018192868501518155019401920161035f565b60036000527fc2575a0e9e593c00f959f8c92f12db2869c3395a3b0502d05e2516446f71f85b601f830160051c8101916020841061040e575b601f0160051c01905b81811061040257506100b0565b600081556001016103f5565b90915081906103ec565b90607f169061009e565b600080fd5b6040519190601f01601f191682016001600160401b0381118382101761032b57604052565b81601f82011215610422578051906001600160401b03821161032b5761047b601f8301601f1916602001610427565b92828452602083830101116104225760005b8281106104a257505060206000918301015290565b8060208092840101518282870101520161048d56fe608080604052600436101561001357600080fd5b60003560e01c90816306fdde03146105ac57508063095ea7b31461052657806318160ddd1461050857806323b872dd1461041b578063313ce567146103f757806340c10f19146103ca57806370a0823114610390578063715018a6146103335780638da5cb5b1461030a57806395d89b41146101e9578063a0712d68146101ca578063a9059cbb14610199578063dd62ed3e146101485763f2fde38b146100b957600080fd5b34610143576020366003190112610143576100d26106c8565b6100da6107b9565b6001600160a01b0316801561012d57600580546001600160a01b0319811683179091556001600160a01b03167f8be0079c531659141344cd1fd0a4f28419497f9722a3daafe3b4186f6b6457e0600080a3005b631e4fbdf760e01b600052600060045260246000fd5b600080fd5b34610143576040366003190112610143576101616106c8565b6101696106de565b6001600160a01b039182166000908152600160209081526040808320949093168252928352819020549051908152f35b34610143576040366003190112610143576101bf6101b56106c8565b60243590336106f4565b602060405160018152f35b34610143576020366003190112610143576101e7600435336107e2565b005b346101435760003660031901126101435760405160006004548060011c90600181168015610300575b6020831081146102ec578285529081156102d05750600114610279575b50819003601f01601f191681019067ffffffffffffffff8211818310176102635761025f8291826040528261067f565b0390f35b634e487b7160e01b600052604160045260246000fd5b905060046000527f8a35acfbc15ff81a39ae7d344fd709f28e8600b4aa8c65c6b64bfe7fe36bd19b6000905b8282106102ba5750602091508201018261022f565b60018160209254838588010152019101906102a5565b90506020925060ff191682840152151560051b8201018261022f565b634e487b7160e01b84526022600452602484fd5b91607f1691610212565b34610143576000366003190112610143576005546040516001600160a01b039091168152602090f35b346101435760003660031901126101435761034c6107b9565b600580546001600160a01b031981169091556000906001600160a01b03167f8be0079c531659141344cd1fd0a4f28419497f9722a3daafe3b4186f6b6457e08280a3005b34610143576020366003190112610143576001600160a01b036103b16106c8565b1660005260006020526020604060002054604051908152f35b34610143576040366003190112610143576101e76103e66106c8565b6103ee6107b9565b602435906107e2565b3461014357600036600319011261014357602060ff60055460a01c16604051908152f35b34610143576060366003190112610143576104346106c8565b61043c6106de565b6001600160a01b038216600081815260016020908152604080832033845290915290205490926044359291600019811061047c575b506101bf93506106f4565b8381106104eb5784156104d55733156104bf576101bf946000526001602052604060002060018060a01b0333166000526020528360406000209103905584610471565b634a1406b160e11b600052600060045260246000fd5b63e602df0560e01b600052600060045260246000fd5b8390637dc7a0d960e11b6000523360045260245260445260646000fd5b34610143576000366003190112610143576020600254604051908152f35b346101435760403660031901126101435761053f6106c8565b6024359033156104d5576001600160a01b03169081156104bf57336000526001602052604060002082600052602052806040600020556040519081527f8c5be1e5ebec7d5bd14f71427d1e84f3dd0314c0f7b2291e5b200ac8c7c3b92560203392a3602060405160018152f35b346101435760003660031901126101435760006003548060011c90600181168015610675575b6020831081146102ec578285529081156102d0575060011461061e5750819003601f01601f191681019067ffffffffffffffff8211818310176102635761025f8291826040528261067f565b905060036000527fc2575a0e9e593c00f959f8c92f12db2869c3395a3b0502d05e2516446f71f85b6000905b82821061065f5750602091508201018261022f565b600181602092548385880101520191019061064a565b91607f16916105d2565b91909160208152825180602083015260005b8181106106b2575060409293506000838284010152601f8019910116010190565b8060208092870101516040828601015201610691565b600435906001600160a01b038216820361014357565b602435906001600160a01b038216820361014357565b6001600160a01b03169081156107a3576001600160a01b031691821561078d5760008281528060205260408120548281106107735791604082827fddf252ad1be2c89b69c2b068fc378daa952ba7f163c4a11628f55a4df523b3ef958760209652828652038282205586815280845220818154019055604051908152a3565b916064928463391434e360e21b8452600452602452604452fd5b63ec442f0560e01b600052600060045260246000fd5b634b637e8f60e11b600052600060045260246000fd5b6005546001600160a01b031633036107cd57565b63118cdaa760e01b6000523360045260246000fd5b6001600160a01b031690811561078d57600254818101809111610841576002557fddf252ad1be2c89b69c2b068fc378daa952ba7f163c4a11628f55a4df523b3ef602060009284845283825260408420818154019055604051908152a3565b634e487b7160e01b600052601160045260246000fdfea164736f6c634300081c000a",
  "linkReferences": {},
  "deployedLinkReferences": {}
}