{"contracts/MerkleAirdrop.sol":{"MerkleAirdrop":{"abi":[{"inputs":[{"internalType":"address","name":"token_","type":"address"},{"internalType":"address","name":"owner_","type":"address"},{"internalType":"bytes32","name":"merkleRoot_","type":"bytes32"},{"internalType":"string","name":"metadataURI_","type":"string"},{"internalType":"uint256","name":"totalAmount_","type":"uint256"}],"stateMutability":"nonpayable","type":"constructor"},{"inputs":[{"internalType":"address","name":"owner","type":"address"}],"name":"OwnableInvalidOwner","type":"error"},{"inputs":[{"internalType":"address","name":"account","type":"address"}],"name":"OwnableUnauthorizedAccount","type":"error"},{"inputs":[{"internalType":"address","name":"token","type":"address"}],"name":"SafeERC20FailedOperation","type":"error"},{"anonymous":false,"inputs":[{"indexed":true,"internalType":"uint256","name":"index","type":"uint256"},{"indexed":true,"internalType":"address","name":"account","type":"address"},{"indexed":false,"internalType":"uint256","name":"amount","type":"uint256"}],"name":"Claimed","type":"event"},{"anonymous":false,"inputs":[{"indexed":true,"internalType":"address","name":"token","type":"address"},{"indexed":true,"internalType":"address","name":"owner","type":"address"},{"indexed":false,"internalType":"bytes32","name":"merkleRoot","type":"bytes32"},{"indexed":false,"internalType":"string","name":"metadataURI","type":"string"},{"indexed":false,"internalType":"uint256","name":"totalAmount","type":"uint256"},{"indexed":false,"internalType":"uint256","name":"claimDeadline","type":"uint256"},{"indexed":false,"internalType":"uint256","name":"unlockTimestamp","type":"uint256"}],"name":"Initialized","type":"event"},{"anonymous":false,"inputs":[{"indexed":true,"internalType":"address","name":"previousOwner","type":"address"},{"indexed":true,"internalType":"address","name":"newOwner","type":"address"}],"name":"OwnershipTransferred","type":"event"},{"anonymous":false,"inputs":[{"indexed":true,"internalType":"address","name":"to","type":"address"},{"indexed":false,"internalType":"uint256","name":"amount","type":"uint256"}],"name":"Withdrawn","type":"event"},{"inputs":[{"internalType":"uint256","name":"index","type":"uint256"},{"internalType":"address","name":"account","type":"address"},{"internalType":"uint256","name":"amount","type":"uint256"},{"internalType":"bytes32[]","name":"merkleProof","type":"bytes32[]"}],"name":"claim","outputs":[],"stateMutability":"nonpayable","type":"function"},{"inputs":[],"name":"claimDeadline","outputs":[{"internalType":"uint256","name":"","type":"uint256"}],"stateMutability":"view","type":"function"},{"inputs":[],"name":"getBalance","outputs":[{"internalType":"uint256","name":"balance","type":"uint256"}],"stateMutability":"view","type":"function"},{"inputs":[],"name":"getDaysUntilExpiry","outputs":[{"internalType":"uint256","name":"daysRemaining","type":"uint256"}],"stateMutability":"view","type":"function"},{"inputs":[],"name":"getDaysUntilWithdrawal","outputs":[{"internalType":"uint256","name":"daysRemaining","type":"uint256"}],"stateMutability":"view","type":"function"},{"inputs":[{"internalType":"address","name":"","type":"address"},{"internalType":"address","name":"","type":"address"},{"internalType":"bytes32","name":"","type":"bytes32"},{"internalType":"string","name":"","type":"string"},{"internalType":"uint256","name":"","type":"uint256"}],"name":"initialize","outputs":[],"stateMutability":"pure","type":"function"},{"inputs":[{"internalType":"uint256","name":"index","type":"uint256"}],"name":"isClaimed","outputs":[{"internalType":"bool","name":"claimed","type":"bool"}],"stateMutability":"view","type":"function"},{"inputs":[],"name":"merkleRoot","outputs":[{"internalType":"bytes32","name":"","type":"bytes32"}],"stateMutability":"view","type":"function"},{"inputs":[],"name":"metadataURI","outputs":[{"internalType":"string","name":"","type":"string"}],"stateMutability":"view","type":"function"},{"inputs":[],"name":"owner","outputs":[{"internalType":"address","name":"","type":"address"}],"stateMutability":"view","type":"function"},{"inputs":[],"name":"renounceOwnership","outputs":[],"stateMutability":"nonpayable","type":"function"},{"inputs":[],"name":"token","outputs":[{"internalType":"address","name":"","type":"address"}],"stateMutability":"view","type":"function"},{"inputs":[],"name":"totalAmount","outputs":[{"internalType":"uint256","name":"","type":"uint256"}],"stateMutability":"view","type":"function"},{"inputs":[{"internalType":"address","name":"newOwner","type":"address"}],"name":"transferOwnership","outputs":[],"stateMutability":"nonpayable","type":"function"},{"inputs":[],"name":"unlockTimestamp","outputs":[{"internalType":"uint256","name":"","type":"uint256"}],"stateMutability":"view","type":"function"},{"inputs":[],"name":"withdrawRemaining","outputs":[],"stateMutability":"nonpayable","type":"function"}],"evm":{"bytecode":{"linkReferences":{},"object":"610120604052346104d6576112ea8038038061001a816104f1565b92833981019060a0818303126104d65761003381610516565b9061004060208201610516565b60408201516060830151919490916001600160401b0381116104d65783019281601f850112156104d6578351906001600160401b0382116104db5761008e601f8301601f19166020016104f1565b948286526020860193602084830101116104d6576080928460206100b2930161052a565b01516001600160a01b039095169485156104c057600080546001600160a01b0319811688178255604051969188916001600160a01b0316907f8be0079c531659141344cd1fd0a4f28419497f9722a3daafe3b4186f6b6457e09080a36001600160a01b031694851561046a575060009083156104135780156103a857608086905260a084905284516001600160401b03811161039457600154600181811c9116801561038a575b602082101461037657601f8111610313575b50806020601f82116001146102b05784916102a5575b508160011b916000199060031b1c1916176001555b8060c05262093a80420191824211610291579160c093917f0f026cc5e496ec1aa52ab3320a7b6110edac008119e5ee626ff14829bcdc39739695938260e0525081610100526101ff604051968795865260a060208701525180948160a08801528787019061052a565b6040840152606083018190526080830152601f01601f19168101030190a3604051610d9c908161054e823960805181818160e5015281816101f7015281816107d30152610a1f015260a0518181816105c00152610760015260c051816109d0015260e0518181816105850152818161064a0152610c5d0152610100518181816101bd015281816103b70152610c9f0152f35b634e487b7160e01b81526011600452602490fd5b905086015138610181565b600185528085209150601f198316855b8181106102fb575090836001949392106102e2575b5050811b01600155610196565b88015160001960f88460031b161c1916905538806102d5565b9192602060018192868d0151815501940192016102c0565b600184527fb10e2d527612073b26eecdfd717e6a320cf44b4afac2b0732d9fcbe2b7fa0cf6601f830160051c8101916020841061036c575b601f0160051c01905b818110610361575061016b565b848155600101610354565b909150819061034b565b634e487b7160e01b84526022600452602484fd5b90607f1690610159565b634e487b7160e01b83526041600452602483fd5b60405162461bcd60e51b815260206004820152603560248201527f4d65726b6c6541697264726f703a20746f74616c20616d6f756e74206d75737460448201527f2062652067726561746572207468616e207a65726f00000000000000000000006064820152608490fd5b60405162461bcd60e51b815260206004820152602960248201527f4d65726b6c6541697264726f703a206d65726b6c6520726f6f742063616e6e6f60448201526874206265207a65726f60b81b6064820152608490fd5b62461bcd60e51b815260206004820152602b60248201527f4d65726b6c6541697264726f703a20746f6b656e2063616e6e6f74206265207a60448201526a65726f206164647265737360a81b6064820152608490fd5b631e4fbdf760e01b600052600060045260246000fd5b600080fd5b634e487b7160e01b600052604160045260246000fd5b6040519190601f01601f191682016001600160401b038111838210176104db57604052565b51906001600160a01b03821682036104d657565b60005b83811061053d5750506000910152565b818101518382015260200161052d56fe608080604052600436101561001357600080fd5b60003560e01c90816303ee438c14610a955750806312065fe0146109f35780631a39d8ef146109b85780632e7ba6ef146105e35780632eb4a7ab146105a85780633ba86c441461056d5780634fc31cbb146104ba578063715018a6146104615780638da5cb5b1461043857806392f1db671461041d5780639e34070f146103da578063aa082a9d1461039f578063d263277b1461037c578063ee38db95146101a2578063f2fde38b146101195763fc0c546a146100cf57600080fd5b34610114576000366003190112610114576040517f00000000000000000000000000000000000000000000000000000000000000006001600160a01b03168152602090f35b600080fd5b3461011457602036600319011261011457610132610bea565b61013a610d66565b6001600160a01b0316801561018c57600080546001600160a01b03198116831782556001600160a01b0316907f8be0079c531659141344cd1fd0a4f28419497f9722a3daafe3b4186f6b6457e09080a3005b631e4fbdf760e01b600052600060045260246000fd5b34610114576000366003190112610114576101bb610d66565b7f00000000000000000000000000000000000000000000000000000000000000004210610325576040516370a0823160e01b81523060048201527f00000000000000000000000000000000000000000000000000000000000000006020826024816001600160a01b0385165afa918215610319576000926102e2575b508115610291576000546102569183916001600160a01b031690610cd5565b6000546040519182526001600160a01b0316907f7084f5476618d8e60b11ef0d7d3f06914655adb8793e28ff7f018d4c76d505d590602090a2005b60405162461bcd60e51b8152602060048201526024808201527f4d65726b6c6541697264726f703a206e6f20746f6b656e7320746f20776974686044820152636472617760e01b6064820152608490fd5b90916020823d602011610311575b816102fd60209383610c00565b8101031261030e5750519082610237565b80fd5b3d91506102f0565b6040513d6000823e3d90fd5b60405162461bcd60e51b815260206004820152602960248201527f4d65726b6c6541697264726f703a207769746864726177616c206e6f742079656044820152681d08185b1b1bddd95960ba1b6064820152608490fd5b34610114576000366003190112610114576020610397610c9d565b604051908152f35b346101145760003660031901126101145760206040517f00000000000000000000000000000000000000000000000000000000000000008152f35b346101145760203660031901126101145760206104136004358060081c6000526002602052600160ff60406000205492161b8091161490565b6040519015158152f35b34610114576000366003190112610114576020610397610c5b565b34610114576000366003190112610114576000546040516001600160a01b039091168152602090f35b346101145760003660031901126101145761047a610d66565b600080546001600160a01b0319811682556001600160a01b03167f8be0079c531659141344cd1fd0a4f28419497f9722a3daafe3b4186f6b6457e08280a3005b346101145760a0366003190112610114576104d3610bea565b506104dc610bd4565b5060643567ffffffffffffffff8111610114573660238201121561011457806004013567ffffffffffffffff811161011457369101602401116101145760405162461bcd60e51b815260206004820152602660248201527f4d65726b6c6541697264726f703a2075736520636f6e7374727563746f7220696044820152651b9cdd19585960d21b6064820152608490fd5b346101145760003660031901126101145760206040517f00000000000000000000000000000000000000000000000000000000000000008152f35b346101145760003660031901126101145760206040517f00000000000000000000000000000000000000000000000000000000000000008152f35b34610114576080366003190112610114576004356105ff610bd4565b6044356064359267ffffffffffffffff841161011457366023850112156101145783600401359367ffffffffffffffff8511610114578460051b9160248383010191368311610114577f00000000000000000000000000000000000000000000000000000000000000004211610967576001600160a01b03861692338403610910576106a5838060081c6000526002602052600160ff60406000205492161b8091161490565b6108bf5785156108625760405160208101908482526bffffffffffffffffffffffff198960601b166040820152876054820152605481526106e7607482610c00565b519020916000986106fe6020604051980188610c00565b8652602401602086015b828210610852575050509386945b84518610156107595760208660051b86010151908181106000146107485788526020526001604088205b950194610716565b908852602052600160408820610740565b87945086907f00000000000000000000000000000000000000000000000000000000000000000361080157816107f77f4ec90e965519d92681267467f775ada5bd214aa92c0dc93d90a5e880ce9ed026936020938660081c808a526002865260408a2054908a5260028652600160ff89161b1760408a20557f0000000000000000000000000000000000000000000000000000000000000000610cd5565b604051908152a380f35b60405162461bcd60e51b815260206004820152602360248201527f4d65726b6c6541697264726f703a20696e76616c6964206d65726b6c6520707260448201526237b7b360e91b6064820152608490fd5b8135815260209182019101610708565b60405162461bcd60e51b815260206004820152602f60248201527f4d65726b6c6541697264726f703a20616d6f756e74206d75737420626520677260448201526e6561746572207468616e207a65726f60881b6064820152608490fd5b60405162461bcd60e51b815260206004820152602360248201527f4d65726b6c6541697264726f703a2064726f7020616c726561647920636c61696044820152621b595960ea1b6064820152608490fd5b60405162461bcd60e51b815260206004820152602960248201527f4d65726b6c6541697264726f703a2063616c6c6572206d75737420626520746860448201526819481858d8dbdd5b9d60ba1b6064820152608490fd5b60405162461bcd60e51b815260206004820152602360248201527f4d65726b6c6541697264726f703a20636c61696d20706572696f6420657870696044820152621c995960ea1b6064820152608490fd5b346101145760003660031901126101145760206040517f00000000000000000000000000000000000000000000000000000000000000008152f35b34610114576000366003190112610114576040516370a0823160e01b81523060048201526020816024817f00000000000000000000000000000000000000000000000000000000000000006001600160a01b03165afa801561031957600090610a62575b602090604051908152f35b506020813d602011610a8d575b81610a7c60209383610c00565b810103126101145760209051610a57565b3d9150610a6f565b34610114576000366003190112610114576000600154908160011c91600181168015610bca575b602084108114610bb6578385528492918115610b975750600114610b36575b610ae792500382610c00565b60405190602082528181519182602083015260005b838110610b1e5750508160006040809484010152601f80199101168101030190f35b60208282018101516040878401015285935001610afc565b509060016000527fb10e2d527612073b26eecdfd717e6a320cf44b4afac2b0732d9fcbe2b7fa0cf6906000915b818310610b7b575050906020610ae792820101610adb565b6020919350806001915483858801015201910190918392610b63565b60209250610ae794915060ff191682840152151560051b820101610adb565b634e487b7160e01b83526022600452602483fd5b92607f1692610abc565b602435906001600160a01b038216820361011457565b600435906001600160a01b038216820361011457565b90601f8019910116810190811067ffffffffffffffff821117610c2257604052565b634e487b7160e01b600052604160045260246000fd5b91908203918211610c4557565b634e487b7160e01b600052601160045260246000fd5b7f000000000000000000000000000000000000000000000000000000000000000080421015610c9757610c9362015180914290610c38565b0490565b50600090565b7f000000000000000000000000000000000000000000000000000000000000000080421015610c9757610c9362015180914290610c38565b60405163a9059cbb60e01b60208281019182526001600160a01b0390941660248301526044808301959095529381529092600091610d14606482610c00565b519082855af115610319576000513d610d5d57506001600160a01b0381163b155b610d3c5750565b635274afe760e01b60009081526001600160a01b0391909116600452602490fd5b60011415610d35565b6000546001600160a01b03163303610d7a57565b63118cdaa760e01b6000523360045260246000fdfea164736f6c634300081c000a","opcodes":"PUSH2 0x120 PUSH1 0x40 MSTORE CALLVALUE PUSH2 0x4D6 JUMPI PUSH2 0x12EA DUP1 CODESIZE SUB DUP1 PUSH2 0x1A DUP2 PUSH2 0x4F1 JUMP JUMPDEST SWAP3 DUP4 CODECOPY DUP2 ADD SWAP1 PUSH1 0xA0 DUP2 DUP4 SUB SLT PUSH2 0x4D6 JUMPI PUSH2 0x33 DUP2 PUSH2 0x516 JUMP JUMPDEST SWAP1 PUSH2 0x40 PUSH1 0x20 DUP3 ADD PUSH2 0x516 JUMP JUMPDEST PUSH1 0x40 DUP3 ADD MLOAD PUSH1 0x60 DUP4 ADD MLOAD SWAP2 SWAP5 SWAP1 SWAP2 PUSH1 0x1 PUSH1 0x1 PUSH1 0x40 SHL SUB DUP2 GT PUSH2 0x4D6 JUMPI DUP4 ADD SWAP3 DUP2 PUSH1 0x1F DUP6 ADD SLT ISZERO PUSH2 0x4D6 JUMPI DUP4 MLOAD SWAP1 PUSH1 0x1 PUSH1 0x1 PUSH1 0x40 SHL SUB DUP3 GT PUSH2 0x4DB JUMPI PUSH2 0x8E PUSH1 0x1F DUP4 ADD PUSH1 0x1F NOT AND PUSH1 0x20 ADD PUSH2 0x4F1 JUMP JUMPDEST SWAP5 DUP3 DUP7 MSTORE PUSH1 0x20 DUP7 ADD SWAP4 PUSH1 0x20 DUP5 DUP4 ADD ADD GT PUSH2 0x4D6 JUMPI PUSH1 0x80 SWAP3 DUP5 PUSH1 0x20 PUSH2 0xB2 SWAP4 ADD PUSH2 0x52A JUMP JUMPDEST ADD MLOAD PUSH1 0x1 PUSH1 0x1 PUSH1 0xA0 SHL SUB SWAP1 SWAP6 AND SWAP5 DUP6 ISZERO PUSH2 0x4C0 JUMPI PUSH1 0x0 DUP1 SLOAD PUSH1 0x1 PUSH1 0x1 PUSH1 0xA0 SHL SUB NOT DUP2 AND DUP9 OR DUP3 SSTORE PUSH1 0x40 MLOAD SWAP7 SWAP2 DUP9 SWAP2 PUSH1 0x1 PUSH1 0x1 PUSH1 0xA0 SHL SUB AND SWAP1 PUSH32 0x8BE0079C531659141344CD1FD0A4F28419497F9722A3DAAFE3B4186F6B6457E0 SWAP1 DUP1 LOG3 PUSH1 0x1 PUSH1 0x1 PUSH1 0xA0 SHL SUB AND SWAP5 DUP6 ISZERO PUSH2 0x46A JUMPI POP PUSH1 0x0 SWAP1 DUP4 ISZERO PUSH2 0x413 JUMPI DUP1 ISZERO PUSH2 0x3A8 JUMPI PUSH1 0x80 DUP7 SWAP1 MSTORE PUSH1 0xA0 DUP5 SWAP1 MSTORE DUP5 MLOAD PUSH1 0x1 PUSH1 0x1 PUSH1 0x40 SHL SUB DUP2 GT PUSH2 0x394 JUMPI PUSH1 0x1 SLOAD PUSH1 0x1 DUP2 DUP2 SHR SWAP2 AND DUP1 ISZERO PUSH2 0x38A JUMPI JUMPDEST PUSH1 0x20 DUP3 LT EQ PUSH2 0x376 JUMPI PUSH1 0x1F DUP2 GT PUSH2 0x313 JUMPI JUMPDEST POP DUP1 PUSH1 0x20 PUSH1 0x1F DUP3 GT PUSH1 0x1 EQ PUSH2 0x2B0 JUMPI DUP5 SWAP2 PUSH2 0x2A5 JUMPI JUMPDEST POP DUP2 PUSH1 0x1 SHL SWAP2 PUSH1 0x0 NOT SWAP1 PUSH1 0x3 SHL SHR NOT AND OR PUSH1 0x1 SSTORE JUMPDEST DUP1 PUSH1 0xC0 MSTORE PUSH3 0x93A80 TIMESTAMP ADD SWAP2 DUP3 TIMESTAMP GT PUSH2 0x291 JUMPI SWAP2 PUSH1 0xC0 SWAP4 SWAP2 PUSH32 0xF026CC5E496EC1AA52AB3320A7B6110EDAC008119E5EE626FF14829BCDC3973 SWAP7 SWAP6 SWAP4 DUP3 PUSH1 0xE0 MSTORE POP DUP2 PUSH2 0x100 MSTORE PUSH2 0x1FF PUSH1 0x40 MLOAD SWAP7 DUP8 SWAP6 DUP7 MSTORE PUSH1 0xA0 PUSH1 0x20 DUP8 ADD MSTORE MLOAD DUP1 SWAP5 DUP2 PUSH1 0xA0 DUP9 ADD MSTORE DUP8 DUP8 ADD SWAP1 PUSH2 0x52A JUMP JUMPDEST PUSH1 0x40 DUP5 ADD MSTORE PUSH1 0x60 DUP4 ADD DUP2 SWAP1 MSTORE PUSH1 0x80 DUP4 ADD MSTORE PUSH1 0x1F ADD PUSH1 0x1F NOT AND DUP2 ADD SUB ADD SWAP1 LOG3 PUSH1 0x40 MLOAD PUSH2 0xD9C SWAP1 DUP2 PUSH2 0x54E DUP3 CODECOPY PUSH1 0x80 MLOAD DUP2 DUP2 DUP2 PUSH1 0xE5 ADD MSTORE DUP2 DUP2 PUSH2 0x1F7 ADD MSTORE DUP2 DUP2 PUSH2 0x7D3 ADD MSTORE PUSH2 0xA1F ADD MSTORE PUSH1 0xA0 MLOAD DUP2 DUP2 DUP2 PUSH2 0x5C0 ADD MSTORE PUSH2 0x760 ADD MSTORE PUSH1 0xC0 MLOAD DUP2 PUSH2 0x9D0 ADD MSTORE PUSH1 0xE0 MLOAD DUP2 DUP2 DUP2 PUSH2 0x585 ADD MSTORE DUP2 DUP2 PUSH2 0x64A ADD MSTORE PUSH2 0xC5D ADD MSTORE PUSH2 0x100 MLOAD DUP2 DUP2 DUP2 PUSH2 0x1BD ADD MSTORE DUP2 DUP2 PUSH2 0x3B7 ADD MSTORE PUSH2 0xC9F ADD MSTORE RETURN JUMPDEST PUSH4 0x4E487B71 PUSH1 0xE0 SHL DUP2 MSTORE PUSH1 0x11 PUSH1 0x4 MSTORE PUSH1 0x24 SWAP1 REVERT JUMPDEST SWAP1 POP DUP7 ADD MLOAD CODESIZE PUSH2 0x181 JUMP JUMPDEST PUSH1 0x1 DUP6 MSTORE DUP1 DUP6 KECCAK256 SWAP2 POP PUSH1 0x1F NOT DUP4 AND DUP6 JUMPDEST DUP2 DUP2 LT PUSH2 0x2FB JUMPI POP SWAP1 DUP4 PUSH1 0x1 SWAP5 SWAP4 SWAP3 LT PUSH2 0x2E2 JUMPI JUMPDEST POP POP DUP2 SHL ADD PUSH1 0x1 SSTORE PUSH2 0x196 JUMP JUMPDEST DUP9 ADD MLOAD PUSH1 0x0 NOT PUSH1 0xF8 DUP5 PUSH1 0x3 SHL AND SHR NOT AND SWAP1 SSTORE CODESIZE DUP1 PUSH2 0x2D5 JUMP JUMPDEST SWAP2 SWAP3 PUSH1 0x20 PUSH1 0x1 DUP2 SWAP3 DUP7 DUP14 ADD MLOAD DUP2 SSTORE ADD SWAP5 ADD SWAP3 ADD PUSH2 0x2C0 JUMP JUMPDEST PUSH1 0x1 DUP5 MSTORE PUSH32 0xB10E2D527612073B26EECDFD717E6A320CF44B4AFAC2B0732D9FCBE2B7FA0CF6 PUSH1 0x1F DUP4 ADD PUSH1 0x5 SHR DUP2 ADD SWAP2 PUSH1 0x20 DUP5 LT PUSH2 0x36C JUMPI JUMPDEST PUSH1 0x1F ADD PUSH1 0x5 SHR ADD SWAP1 JUMPDEST DUP2 DUP2 LT PUSH2 0x361 JUMPI POP PUSH2 0x16B JUMP JUMPDEST DUP5 DUP2 SSTORE PUSH1 0x1 ADD PUSH2 0x354 JUMP JUMPDEST SWAP1 SWAP2 POP DUP2 SWAP1 PUSH2 0x34B JUMP JUMPDEST PUSH4 0x4E487B71 PUSH1 0xE0 SHL DUP5 MSTORE PUSH1 0x22 PUSH1 0x4 MSTORE PUSH1 0x24 DUP5 REVERT JUMPDEST SWAP1 PUSH1 0x7F AND SWAP1 PUSH2 0x159 JUMP JUMPDEST PUSH4 0x4E487B71 PUSH1 0xE0 SHL DUP4 MSTORE PUSH1 0x41 PUSH1 0x4 MSTORE PUSH1 0x24 DUP4 REVERT JUMPDEST PUSH1 0x40 MLOAD PUSH3 0x461BCD PUSH1 0xE5 SHL DUP2 MSTORE PUSH1 0x20 PUSH1 0x4 DUP3 ADD MSTORE PUSH1 0x35 PUSH1 0x24 DUP3 ADD MSTORE PUSH32 0x4D65726B6C6541697264726F703A20746F74616C20616D6F756E74206D757374 PUSH1 0x44 DUP3 ADD MSTORE PUSH32 0x2062652067726561746572207468616E207A65726F0000000000000000000000 PUSH1 0x64 DUP3 ADD MSTORE PUSH1 0x84 SWAP1 REVERT JUMPDEST PUSH1 0x40 MLOAD PUSH3 0x461BCD PUSH1 0xE5 SHL DUP2 MSTORE PUSH1 0x20 PUSH1 0x4 DUP3 ADD MSTORE PUSH1 0x29 PUSH1 0x24 DUP3 ADD MSTORE PUSH32 0x4D65726B6C6541697264726F703A206D65726B6C6520726F6F742063616E6E6F PUSH1 0x44 DUP3 ADD MSTORE PUSH9 0x74206265207A65726F PUSH1 0xB8 SHL PUSH1 0x64 DUP3 ADD MSTORE PUSH1 0x84 SWAP1 REVERT JUMPDEST PUSH3 0x461BCD PUSH1 0xE5 SHL DUP2 MSTORE PUSH1 0x20 PUSH1 0x4 DUP3 ADD MSTORE PUSH1 0x2B PUSH1 0x24 DUP3 ADD MSTORE PUSH32 0x4D65726B6C6541697264726F703A20746F6B656E2063616E6E6F74206265207A PUSH1 0x44 DUP3 ADD MSTORE PUSH11 0x65726F2061646472657373 PUSH1 0xA8 SHL PUSH1 0x64 DUP3 ADD MSTORE PUSH1 0x84 SWAP1 REVERT JUMPDEST PUSH4 0x1E4FBDF7 PUSH1 0xE0 SHL PUSH1 0x0 MSTORE PUSH1 0x0 PUSH1 0x4 MSTORE PUSH1 0x24 PUSH1 0x0 REVERT JUMPDEST PUSH1 0x0 DUP1 REVERT JUMPDEST PUSH4 0x4E487B71 PUSH1 0xE0 SHL PUSH1 0x0 MSTORE PUSH1 0x41 PUSH1 0x4 MSTORE PUSH1 0x24 PUSH1 0x0 REVERT JUMPDEST PUSH1 0x40 MLOAD SWAP2 SWAP1 PUSH1 0x1F ADD PUSH1 0x1F NOT AND DUP3 ADD PUSH1 0x1 PUSH1 0x1 PUSH1 0x40 SHL SUB DUP2 GT DUP4 DUP3 LT OR PUSH2 0x4DB JUMPI PUSH1 0x40 MSTORE JUMP JUMPDEST MLOAD SWAP1 PUSH1 0x1 PUSH1 0x1 PUSH1 0xA0 SHL SUB DUP3 AND DUP3 SUB PUSH2 0x4D6 JUMPI JUMP JUMPDEST PUSH1 0x0 JUMPDEST DUP4 DUP2 LT PUSH2 0x53D JUMPI POP POP PUSH1 0x0 SWAP2 ADD MSTORE JUMP JUMPDEST DUP2 DUP2 ADD MLOAD DUP4 DUP3 ADD MSTORE PUSH1 0x20 ADD PUSH2 0x52D JUMP INVALID PUSH1 0x80 DUP1 PUSH1 0x40 MSTORE PUSH1 0x4 CALLDATASIZE LT ISZERO PUSH2 0x13 JUMPI PUSH1 0x0 DUP1 REVERT JUMPDEST PUSH1 0x0 CALLDATALOAD PUSH1 0xE0 SHR SWAP1 DUP2 PUSH4 0x3EE438C EQ PUSH2 0xA95 JUMPI POP DUP1 PUSH4 0x12065FE0 EQ PUSH2 0x9F3 JUMPI DUP1 PUSH4 0x1A39D8EF EQ PUSH2 0x9B8 JUMPI DUP1 PUSH4 0x2E7BA6EF EQ PUSH2 0x5E3 JUMPI DUP1 PUSH4 0x2EB4A7AB EQ PUSH2 0x5A8 JUMPI DUP1 PUSH4 0x3BA86C44 EQ PUSH2 0x56D JUMPI DUP1 PUSH4 0x4FC31CBB EQ PUSH2 0x4BA JUMPI DUP1 PUSH4 0x715018A6 EQ PUSH2 0x461 JUMPI DUP1 PUSH4 0x8DA5CB5B EQ PUSH2 0x438 JUMPI DUP1 PUSH4 0x92F1DB67 EQ PUSH2 0x41D JUMPI DUP1 PUSH4 0x9E34070F EQ PUSH2 0x3DA JUMPI DUP1 PUSH4 0xAA082A9D EQ PUSH2 0x39F JUMPI DUP1 PUSH4 0xD263277B EQ PUSH2 0x37C JUMPI DUP1 PUSH4 0xEE38DB95 EQ PUSH2 0x1A2 JUMPI DUP1 PUSH4 0xF2FDE38B EQ PUSH2 0x119 JUMPI PUSH4 0xFC0C546A EQ PUSH2 0xCF JUMPI PUSH1 0x0 DUP1 REVERT JUMPDEST CALLVALUE PUSH2 0x114 JUMPI PUSH1 0x0 CALLDATASIZE PUSH1 0x3 NOT ADD SLT PUSH2 0x114 JUMPI PUSH1 0x40 MLOAD PUSH32 0x0 PUSH1 0x1 PUSH1 0x1 PUSH1 0xA0 SHL SUB AND DUP2 MSTORE PUSH1 0x20 SWAP1 RETURN JUMPDEST PUSH1 0x0 DUP1 REVERT JUMPDEST CALLVALUE PUSH2 0x114 JUMPI PUSH1 0x20 CALLDATASIZE PUSH1 0x3 NOT ADD SLT PUSH2 0x114 JUMPI PUSH2 0x132 PUSH2 0xBEA JUMP JUMPDEST PUSH2 0x13A PUSH2 0xD66 JUMP JUMPDEST PUSH1 0x1 PUSH1 0x1 PUSH1 0xA0 SHL SUB AND DUP1 ISZERO PUSH2 0x18C JUMPI PUSH1 0x0 DUP1 SLOAD PUSH1 0x1 PUSH1 0x1 PUSH1 0xA0 SHL SUB NOT DUP2 AND DUP4 OR DUP3 SSTORE PUSH1 0x1 PUSH1 0x1 PUSH1 0xA0 SHL SUB AND SWAP1 PUSH32 0x8BE0079C531659141344CD1FD0A4F28419497F9722A3DAAFE3B4186F6B6457E0 SWAP1 DUP1 LOG3 STOP JUMPDEST PUSH4 0x1E4FBDF7 PUSH1 0xE0 SHL PUSH1 0x0 MSTORE PUSH1 0x0 PUSH1 0x4 MSTORE PUSH1 0x24 PUSH1 0x0 REVERT JUMPDEST CALLVALUE PUSH2 0x114 JUMPI PUSH1 0x0 CALLDATASIZE PUSH1 0x3 NOT ADD SLT PUSH2 0x114 JUMPI PUSH2 0x1BB PUSH2 0xD66 JUMP JUMPDEST PUSH32 0x0 TIMESTAMP LT PUSH2 0x325 JUMPI PUSH1 0x40 MLOAD PUSH4 0x70A08231 PUSH1 0xE0 SHL DUP2 MSTORE ADDRESS PUSH1 0x4 DUP3 ADD MSTORE PUSH32 0x0 PUSH1 0x20 DUP3 PUSH1 0x24 DUP2 PUSH1 0x1 PUSH1 0x1 PUSH1 0xA0 SHL SUB DUP6 AND GAS STATICCALL SWAP2 DUP3 ISZERO PUSH2 0x319 JUMPI PUSH1 0x0 SWAP3 PUSH2 0x2E2 JUMPI JUMPDEST POP DUP2 ISZERO PUSH2 0x291 JUMPI PUSH1 0x0 SLOAD PUSH2 0x256 SWAP2 DUP4 SWAP2 PUSH1 0x1 PUSH1 0x1 PUSH1 0xA0 SHL SUB AND SWAP1 PUSH2 0xCD5 JUMP JUMPDEST PUSH1 0x0 SLOAD PUSH1 0x40 MLOAD SWAP2 DUP3 MSTORE PUSH1 0x1 PUSH1 0x1 PUSH1 0xA0 SHL SUB AND SWAP1 PUSH32 0x7084F5476618D8E60B11EF0D7D3F06914655ADB8793E28FF7F018D4C76D505D5 SWAP1 PUSH1 0x20 SWAP1 LOG2 STOP JUMPDEST PUSH1 0x40 MLOAD PUSH3 0x461BCD PUSH1 0xE5 SHL DUP2 MSTORE PUSH1 0x20 PUSH1 0x4 DUP3 ADD MSTORE PUSH1 0x24 DUP1 DUP3 ADD MSTORE PUSH32 0x4D65726B6C6541697264726F703A206E6F20746F6B656E7320746F2077697468 PUSH1 0x44 DUP3 ADD MSTORE PUSH4 0x64726177 PUSH1 0xE0 SHL PUSH1 0x64 DUP3 ADD MSTORE PUSH1 0x84 SWAP1 REVERT JUMPDEST SWAP1 SWAP2 PUSH1 0x20 DUP3 RETURNDATASIZE PUSH1 0x20 GT PUSH2 0x311 JUMPI JUMPDEST DUP2 PUSH2 0x2FD PUSH1 0x20 SWAP4 DUP4 PUSH2 0xC00 JUMP JUMPDEST DUP2 ADD SUB SLT PUSH2 0x30E JUMPI POP MLOAD SWAP1 DUP3 PUSH2 0x237 JUMP JUMPDEST DUP1 REVERT JUMPDEST RETURNDATASIZE SWAP2 POP PUSH2 0x2F0 JUMP JUMPDEST PUSH1 0x40 MLOAD RETURNDATASIZE PUSH1 0x0 DUP3 RETURNDATACOPY RETURNDATASIZE SWAP1 REVERT JUMPDEST PUSH1 0x40 MLOAD PUSH3 0x461BCD PUSH1 0xE5 SHL DUP2 MSTORE PUSH1 0x20 PUSH1 0x4 DUP3 ADD MSTORE PUSH1 0x29 PUSH1 0x24 DUP3 ADD MSTORE PUSH32 0x4D65726B6C6541697264726F703A207769746864726177616C206E6F74207965 PUSH1 0x44 DUP3 ADD MSTORE PUSH9 0x1D08185B1B1BDDD959 PUSH1 0xBA SHL PUSH1 0x64 DUP3 ADD MSTORE PUSH1 0x84 SWAP1 REVERT JUMPDEST CALLVALUE PUSH2 0x114 JUMPI PUSH1 0x0 CALLDATASIZE PUSH1 0x3 NOT ADD SLT PUSH2 0x114 JUMPI PUSH1 0x20 PUSH2 0x397 PUSH2 0xC9D JUMP JUMPDEST PUSH1 0x40 MLOAD SWAP1 DUP2 MSTORE RETURN JUMPDEST CALLVALUE PUSH2 0x114 JUMPI PUSH1 0x0 CALLDATASIZE PUSH1 0x3 NOT ADD SLT PUSH2 0x114 JUMPI PUSH1 0x20 PUSH1 0x40 MLOAD PUSH32 0x0 DUP2 MSTORE RETURN JUMPDEST CALLVALUE PUSH2 0x114 JUMPI PUSH1 0x20 CALLDATASIZE PUSH1 0x3 NOT ADD SLT PUSH2 0x114 JUMPI PUSH1 0x20 PUSH2 0x413 PUSH1 0x4 CALLDATALOAD DUP1 PUSH1 0x8 SHR PUSH1 0x0 MSTORE PUSH1 0x2 PUSH1 0x20 MSTORE PUSH1 0x1 PUSH1 0xFF PUSH1 0x40 PUSH1 0x0 KECCAK256 SLOAD SWAP3 AND SHL DUP1 SWAP2 AND EQ SWAP1 JUMP JUMPDEST PUSH1 0x40 MLOAD SWAP1 ISZERO ISZERO DUP2 MSTORE RETURN JUMPDEST CALLVALUE PUSH2 0x114 JUMPI PUSH1 0x0 CALLDATASIZE PUSH1 0x3 NOT ADD SLT PUSH2 0x114 JUMPI PUSH1 0x20 PUSH2 0x397 PUSH2 0xC5B JUMP JUMPDEST CALLVALUE PUSH2 0x114 JUMPI PUSH1 0x0 CALLDATASIZE PUSH1 0x3 NOT ADD SLT PUSH2 0x114 JUMPI PUSH1 0x0 SLOAD PUSH1 0x40 MLOAD PUSH1 0x1 PUSH1 0x1 PUSH1 0xA0 SHL SUB SWAP1 SWAP2 AND DUP2 MSTORE PUSH1 0x20 SWAP1 RETURN JUMPDEST CALLVALUE PUSH2 0x114 JUMPI PUSH1 0x0 CALLDATASIZE PUSH1 0x3 NOT ADD SLT PUSH2 0x114 JUMPI PUSH2 0x47A PUSH2 0xD66 JUMP JUMPDEST PUSH1 0x0 DUP1 SLOAD PUSH1 0x1 PUSH1 0x1 PUSH1 0xA0 SHL SUB NOT DUP2 AND DUP3 SSTORE PUSH1 0x1 PUSH1 0x1 PUSH1 0xA0 SHL SUB AND PUSH32 0x8BE0079C531659141344CD1FD0A4F28419497F9722A3DAAFE3B4186F6B6457E0 DUP3 DUP1 LOG3 STOP JUMPDEST CALLVALUE PUSH2 0x114 JUMPI PUSH1 0xA0 CALLDATASIZE PUSH1 0x3 NOT ADD SLT PUSH2 0x114 JUMPI PUSH2 0x4D3 PUSH2 0xBEA JUMP JUMPDEST POP PUSH2 0x4DC PUSH2 0xBD4 JUMP JUMPDEST POP PUSH1 0x64 CALLDATALOAD PUSH8 0xFFFFFFFFFFFFFFFF DUP2 GT PUSH2 0x114 JUMPI CALLDATASIZE PUSH1 0x23 DUP3 ADD SLT ISZERO PUSH2 0x114 JUMPI DUP1 PUSH1 0x4 ADD CALLDATALOAD PUSH8 0xFFFFFFFFFFFFFFFF DUP2 GT PUSH2 0x114 JUMPI CALLDATASIZE SWAP2 ADD PUSH1 0x24 ADD GT PUSH2 0x114 JUMPI PUSH1 0x40 MLOAD PUSH3 0x461BCD PUSH1 0xE5 SHL DUP2 MSTORE PUSH1 0x20 PUSH1 0x4 DUP3 ADD MSTORE PUSH1 0x26 PUSH1 0x24 DUP3 ADD MSTORE PUSH32 0x4D65726B6C6541697264726F703A2075736520636F6E7374727563746F722069 PUSH1 0x44 DUP3 ADD MSTORE PUSH6 0x1B9CDD195859 PUSH1 0xD2 SHL PUSH1 0x64 DUP3 ADD MSTORE PUSH1 0x84 SWAP1 REVERT JUMPDEST CALLVALUE PUSH2 0x114 JUMPI PUSH1 0x0 CALLDATASIZE PUSH1 0x3 NOT ADD SLT PUSH2 0x114 JUMPI PUSH1 0x20 PUSH1 0x40 MLOAD PUSH32 0x0 DUP2 MSTORE RETURN JUMPDEST CALLVALUE PUSH2 0x114 JUMPI PUSH1 0x0 CALLDATASIZE PUSH1 0x3 NOT ADD SLT PUSH2 0x114 JUMPI PUSH1 0x20 PUSH1 0x40 MLOAD PUSH32 0x0 DUP2 MSTORE RETURN JUMPDEST CALLVALUE PUSH2 0x114 JUMPI PUSH1 0x80 CALLDATASIZE PUSH1 0x3 NOT ADD SLT PUSH2 0x114 JUMPI PUSH1 0x4 CALLDATALOAD PUSH2 0x5FF PUSH2 0xBD4 JUMP JUMPDEST PUSH1 0x44 CALLDATALOAD PUSH1 0x64 CALLDATALOAD SWAP3 PUSH8 0xFFFFFFFFFFFFFFFF DUP5 GT PUSH2 0x114 JUMPI CALLDATASIZE PUSH1 0x23 DUP6 ADD SLT ISZERO PUSH2 0x114 JUMPI DUP4 PUSH1 0x4 ADD CALLDATALOAD SWAP4 PUSH8 0xFFFFFFFFFFFFFFFF DUP6 GT PUSH2 0x114 JUMPI DUP5 PUSH1 0x5 SHL SWAP2 PUSH1 0x24 DUP4 DUP4 ADD ADD SWAP2 CALLDATASIZE DUP4 GT PUSH2 0x114 JUMPI PUSH32 0x0 TIMESTAMP GT PUSH2 0x967 JUMPI PUSH1 0x1 PUSH1 0x1 PUSH1 0xA0 SHL SUB DUP7 AND SWAP3 CALLER DUP5 SUB PUSH2 0x910 JUMPI PUSH2 0x6A5 DUP4 DUP1 PUSH1 0x8 SHR PUSH1 0x0 MSTORE PUSH1 0x2 PUSH1 0x20 MSTORE PUSH1 0x1 PUSH1 0xFF PUSH1 0x40 PUSH1 0x0 KECCAK256 SLOAD SWAP3 AND SHL DUP1 SWAP2 AND EQ SWAP1 JUMP JUMPDEST PUSH2 0x8BF JUMPI DUP6 ISZERO PUSH2 0x862 JUMPI PUSH1 0x40 MLOAD PUSH1 0x20 DUP2 ADD SWAP1 DUP5 DUP3 MSTORE PUSH12 0xFFFFFFFFFFFFFFFFFFFFFFFF NOT DUP10 PUSH1 0x60 SHL AND PUSH1 0x40 DUP3 ADD MSTORE DUP8 PUSH1 0x54 DUP3 ADD MSTORE PUSH1 0x54 DUP2 MSTORE PUSH2 0x6E7 PUSH1 0x74 DUP3 PUSH2 0xC00 JUMP JUMPDEST MLOAD SWAP1 KECCAK256 SWAP2 PUSH1 0x0 SWAP9 PUSH2 0x6FE PUSH1 0x20 PUSH1 0x40 MLOAD SWAP9 ADD DUP9 PUSH2 0xC00 JUMP JUMPDEST DUP7 MSTORE PUSH1 0x24 ADD PUSH1 0x20 DUP7 ADD JUMPDEST DUP3 DUP3 LT PUSH2 0x852 JUMPI POP POP POP SWAP4 DUP7 SWAP5 JUMPDEST DUP5 MLOAD DUP7 LT ISZERO PUSH2 0x759 JUMPI PUSH1 0x20 DUP7 PUSH1 0x5 SHL DUP7 ADD ADD MLOAD SWAP1 DUP2 DUP2 LT PUSH1 0x0 EQ PUSH2 0x748 JUMPI DUP9 MSTORE PUSH1 0x20 MSTORE PUSH1 0x1 PUSH1 0x40 DUP9 KECCAK256 JUMPDEST SWAP6 ADD SWAP5 PUSH2 0x716 JUMP JUMPDEST SWAP1 DUP9 MSTORE PUSH1 0x20 MSTORE PUSH1 0x1 PUSH1 0x40 DUP9 KECCAK256 PUSH2 0x740 JUMP JUMPDEST DUP8 SWAP5 POP DUP7 SWAP1 PUSH32 0x0 SUB PUSH2 0x801 JUMPI DUP2 PUSH2 0x7F7 PUSH32 0x4EC90E965519D92681267467F775ADA5BD214AA92C0DC93D90A5E880CE9ED026 SWAP4 PUSH1 0x20 SWAP4 DUP7 PUSH1 0x8 SHR DUP1 DUP11 MSTORE PUSH1 0x2 DUP7 MSTORE PUSH1 0x40 DUP11 KECCAK256 SLOAD SWAP1 DUP11 MSTORE PUSH1 0x2 DUP7 MSTORE PUSH1 0x1 PUSH1 0xFF DUP10 AND SHL OR PUSH1 0x40 DUP11 KECCAK256 SSTORE PUSH32 0x0 PUSH2 0xCD5 JUMP JUMPDEST PUSH1 0x40 MLOAD SWAP1 DUP2 MSTORE LOG3 DUP1 RETURN JUMPDEST PUSH1 0x40 MLOAD PUSH3 0x461BCD PUSH1 0xE5 SHL DUP2 MSTORE PUSH1 0x20 PUSH1 0x4 DUP3 ADD MSTORE PUSH1 0x23 PUSH1 0x24 DUP3 ADD MSTORE PUSH32 0x4D65726B6C6541697264726F703A20696E76616C6964206D65726B6C65207072 PUSH1 0x44 DUP3 ADD MSTORE PUSH3 0x37B7B3 PUSH1 0xE9 SHL PUSH1 0x64 DUP3 ADD MSTORE PUSH1 0x84 SWAP1 REVERT JUMPDEST DUP2 CALLDATALOAD DUP2 MSTORE PUSH1 0x20 SWAP2 DUP3 ADD SWAP2 ADD PUSH2 0x708 JUMP JUMPDEST PUSH1 0x40 MLOAD PUSH3 0x461BCD PUSH1 0xE5 SHL DUP2 MSTORE PUSH1 0x20 PUSH1 0x4 DUP3 ADD MSTORE PUSH1 0x2F PUSH1 0x24 DUP3 ADD MSTORE PUSH32 0x4D65726B6C6541697264726F703A20616D6F756E74206D757374206265206772 PUSH1 0x44 DUP3 ADD MSTORE PUSH15 0x6561746572207468616E207A65726F PUSH1 0x88 SHL PUSH1 0x64 DUP3 ADD MSTORE PUSH1 0x84 SWAP1 REVERT JUMPDEST PUSH1 0x40 MLOAD PUSH3 0x461BCD PUSH1 0xE5 SHL DUP2 MSTORE PUSH1 0x20 PUSH1 0x4 DUP3 ADD MSTORE PUSH1 0x23 PUSH1 0x24 DUP3 ADD MSTORE PUSH32 0x4D65726B6C6541697264726F703A2064726F7020616C726561647920636C6169 PUSH1 0x44 DUP3 ADD MSTORE PUSH3 0x1B5959 PUSH1 0xEA SHL PUSH1 0x64 DUP3 ADD MSTORE PUSH1 0x84 SWAP1 REVERT JUMPDEST PUSH1 0x40 MLOAD PUSH3 0x461BCD PUSH1 0xE5 SHL DUP2 MSTORE PUSH1 0x20 PUSH1 0x4 DUP3 ADD MSTORE PUSH1 0x29 PUSH1 0x24 DUP3 ADD MSTORE PUSH32 0x4D65726B6C6541697264726F703A2063616C6C6572206D757374206265207468 PUSH1 0x44 DUP3 ADD MSTORE PUSH9 0x19481858D8DBDD5B9D PUSH1 0xBA SHL PUSH1 0x64 DUP3 ADD MSTORE PUSH1 0x84 SWAP1 REVERT JUMPDEST PUSH1 0x40 MLOAD PUSH3 0x461BCD PUSH1 0xE5 SHL DUP2 MSTORE PUSH1 0x20 PUSH1 0x4 DUP3 ADD MSTORE PUSH1 0x23 PUSH1 0x24 DUP3 ADD MSTORE PUSH32 0x4D65726B6C6541697264726F703A20636C61696D20706572696F642065787069 PUSH1 0x44 DUP3 ADD MSTORE PUSH3 0x1C9959 PUSH1 0xEA SHL PUSH1 0x64 DUP3 ADD MSTORE PUSH1 0x84 SWAP1 REVERT JUMPDEST CALLVALUE PUSH2 0x114 JUMPI PUSH1 0x0 CALLDATASIZE PUSH1 0x3 NOT ADD SLT PUSH2 0x114 JUMPI PUSH1 0x20 PUSH1 0x40 MLOAD PUSH32 0x0 DUP2 MSTORE RETURN JUMPDEST CALLVALUE PUSH2 0x114 JUMPI PUSH1 0x0 CALLDATASIZE PUSH1 0x3 NOT ADD SLT PUSH2 0x114 JUMPI PUSH1 0x40 MLOAD PUSH4 0x70A08231 PUSH1 0xE0 SHL DUP2 MSTORE ADDRESS PUSH1 0x4 DUP3 ADD MSTORE PUSH1 0x20 DUP2 PUSH1 0x24 DUP2 PUSH32 0x0 PUSH1 0x1 PUSH1 0x1 PUSH1 0xA0 SHL SUB AND GAS STATICCALL DUP1 ISZERO PUSH2 0x319 JUMPI PUSH1 0x0 SWAP1 PUSH2 0xA62 JUMPI JUMPDEST PUSH1 0x20 SWAP1 PUSH1 0x40 MLOAD SWAP1 DUP2 MSTORE RETURN JUMPDEST POP PUSH1 0x20 DUP2 RETURNDATASIZE PUSH1 0x20 GT PUSH2 0xA8D JUMPI JUMPDEST DUP2 PUSH2 0xA7C PUSH1 0x20 SWAP4 DUP4 PUSH2 0xC00 JUMP JUMPDEST DUP2 ADD SUB SLT PUSH2 0x114 JUMPI PUSH1 0x20 SWAP1 MLOAD PUSH2 0xA57 JUMP JUMPDEST RETURNDATASIZE SWAP2 POP PUSH2 0xA6F JUMP JUMPDEST CALLVALUE PUSH2 0x114 JUMPI PUSH1 0x0 CALLDATASIZE PUSH1 0x3 NOT ADD SLT PUSH2 0x114 JUMPI PUSH1 0x0 PUSH1 0x1 SLOAD SWAP1 DUP2 PUSH1 0x1 SHR SWAP2 PUSH1 0x1 DUP2 AND DUP1 ISZERO PUSH2 0xBCA JUMPI JUMPDEST PUSH1 0x20 DUP5 LT DUP2 EQ PUSH2 0xBB6 JUMPI DUP4 DUP6 MSTORE DUP5 SWAP3 SWAP2 DUP2 ISZERO PUSH2 0xB97 JUMPI POP PUSH1 0x1 EQ PUSH2 0xB36 JUMPI JUMPDEST PUSH2 0xAE7 SWAP3 POP SUB DUP3 PUSH2 0xC00 JUMP JUMPDEST PUSH1 0x40 MLOAD SWAP1 PUSH1 0x20 DUP3 MSTORE DUP2 DUP2 MLOAD SWAP2 DUP3 PUSH1 0x20 DUP4 ADD MSTORE PUSH1 0x0 JUMPDEST DUP4 DUP2 LT PUSH2 0xB1E JUMPI POP POP DUP2 PUSH1 0x0 PUSH1 0x40 DUP1 SWAP5 DUP5 ADD ADD MSTORE PUSH1 0x1F DUP1 NOT SWAP2 ADD AND DUP2 ADD SUB ADD SWAP1 RETURN JUMPDEST PUSH1 0x20 DUP3 DUP3 ADD DUP2 ADD MLOAD PUSH1 0x40 DUP8 DUP5 ADD ADD MSTORE DUP6 SWAP4 POP ADD PUSH2 0xAFC JUMP JUMPDEST POP SWAP1 PUSH1 0x1 PUSH1 0x0 MSTORE PUSH32 0xB10E2D527612073B26EECDFD717E6A320CF44B4AFAC2B0732D9FCBE2B7FA0CF6 SWAP1 PUSH1 0x0 SWAP2 JUMPDEST DUP2 DUP4 LT PUSH2 0xB7B JUMPI POP POP SWAP1 PUSH1 0x20 PUSH2 0xAE7 SWAP3 DUP3 ADD ADD PUSH2 0xADB JUMP JUMPDEST PUSH1 0x20 SWAP2 SWAP4 POP DUP1 PUSH1 0x1 SWAP2 SLOAD DUP4 DUP6 DUP9 ADD ADD MSTORE ADD SWAP2 ADD SWAP1 SWAP2 DUP4 SWAP3 PUSH2 0xB63 JUMP JUMPDEST PUSH1 0x20 SWAP3 POP PUSH2 0xAE7 SWAP5 SWAP2 POP PUSH1 0xFF NOT AND DUP3 DUP5 ADD MSTORE ISZERO ISZERO PUSH1 0x5 SHL DUP3 ADD ADD PUSH2 0xADB JUMP JUMPDEST PUSH4 0x4E487B71 PUSH1 0xE0 SHL DUP4 MSTORE PUSH1 0x22 PUSH1 0x4 MSTORE PUSH1 0x24 DUP4 REVERT JUMPDEST SWAP3 PUSH1 0x7F AND SWAP3 PUSH2 0xABC JUMP JUMPDEST PUSH1 0x24 CALLDATALOAD SWAP1 PUSH1 0x1 PUSH1 0x1 PUSH1 0xA0 SHL SUB DUP3 AND DUP3 SUB PUSH2 0x114 JUMPI JUMP JUMPDEST PUSH1 0x4 CALLDATALOAD SWAP1 PUSH1 0x1 PUSH1 0x1 PUSH1 0xA0 SHL SUB DUP3 AND DUP3 SUB PUSH2 0x114 JUMPI JUMP JUMPDEST SWAP1 PUSH1 0x1F DUP1 NOT SWAP2 ADD AND DUP2 ADD SWAP1 DUP2 LT PUSH8 0xFFFFFFFFFFFFFFFF DUP3 GT OR PUSH2 0xC22 JUMPI PUSH1 0x40 MSTORE JUMP JUMPDEST PUSH4 0x4E487B71 PUSH1 0xE0 SHL PUSH1 0x0 MSTORE PUSH1 0x41 PUSH1 0x4 MSTORE PUSH1 0x24 PUSH1 0x0 REVERT JUMPDEST SWAP2 SWAP1 DUP3 SUB SWAP2 DUP3 GT PUSH2 0xC45 JUMPI JUMP JUMPDEST PUSH4 0x4E487B71 PUSH1 0xE0 SHL PUSH1 0x0 MSTORE PUSH1 0x11 PUSH1 0x4 MSTORE PUSH1 0x24 PUSH1 0x0 REVERT JUMPDEST PUSH32 0x0 DUP1 TIMESTAMP LT ISZERO PUSH2 0xC97 JUMPI PUSH2 0xC93 PUSH3 0x15180 SWAP2 TIMESTAMP SWAP1 PUSH2 0xC38 JUMP JUMPDEST DIV SWAP1 JUMP JUMPDEST POP PUSH1 0x0 SWAP1 JUMP JUMPDEST PUSH32 0x0 DUP1 TIMESTAMP LT ISZERO PUSH2 0xC97 JUMPI PUSH2 0xC93 PUSH3 0x15180 SWAP2 TIMESTAMP SWAP1 PUSH2 0xC38 JUMP JUMPDEST PUSH1 0x40 MLOAD PUSH4 0xA9059CBB PUSH1 0xE0 SHL PUSH1 0x20 DUP3 DUP2 ADD SWAP2 DUP3 MSTORE PUSH1 0x1 PUSH1 0x1 PUSH1 0xA0 SHL SUB SWAP1 SWAP5 AND PUSH1 0x24 DUP4 ADD MSTORE PUSH1 0x44 DUP1 DUP4 ADD SWAP6 SWAP1 SWAP6 MSTORE SWAP4 DUP2 MSTORE SWAP1 SWAP3 PUSH1 0x0 SWAP2 PUSH2 0xD14 PUSH1 0x64 DUP3 PUSH2 0xC00 JUMP JUMPDEST MLOAD SWAP1 DUP3 DUP6 GAS CALL ISZERO PUSH2 0x319 JUMPI PUSH1 0x0 MLOAD RETURNDATASIZE PUSH2 0xD5D JUMPI POP PUSH1 0x1 PUSH1 0x1 PUSH1 0xA0 SHL SUB DUP2 AND EXTCODESIZE ISZERO JUMPDEST PUSH2 0xD3C JUMPI POP JUMP JUMPDEST PUSH4 0x5274AFE7 PUSH1 0xE0 SHL PUSH1 0x0 SWAP1 DUP2 MSTORE PUSH1 0x1 PUSH1 0x1 PUSH1 0xA0 SHL SUB SWAP2 SWAP1 SWAP2 AND PUSH1 0x4 MSTORE PUSH1 0x24 SWAP1 REVERT JUMPDEST PUSH1 0x1 EQ ISZERO PUSH2 0xD35 JUMP JUMPDEST PUSH1 0x0 SLOAD PUSH1 0x1 PUSH1 0x1 PUSH1 0xA0 SHL SUB AND CALLER SUB PUSH2 0xD7A JUMPI JUMP JUMPDEST PUSH4 0x118CDAA7 PUSH1 0xE0 SHL PUSH1 0x0 MSTORE CALLER PUSH1 0x4 MSTORE PUSH1 0x24 PUSH1 0x0 REVERT INVALID LOG1 PUSH5 0x736F6C6343 STOP ADDMOD SHR STOP EXP "},"methodIdentifiers":{"claim(uint256,address,uint256,bytes32[])":"2e7ba6ef","claimDeadline()":"3ba86c44","getBalance()":"12065fe0","getDaysUntilExpiry()":"92f1db67","getDaysUntilWithdrawal()":"d263277b","initialize(address,address,bytes32,string,uint256)":"4fc31cbb","isClaimed(uint256)":"9e34070f","merkleRoot()":"2eb4a7ab","metadataURI()":"03ee438c","owner()":"8da5cb5b","renounceOwnership()":"715018a6","token()":"fc0c546a","totalAmount()":"1a39d8ef","transferOwnership(address)":"f2fde38b","unlockTimestamp()":"aa082a9d","withdrawRemaining()":"ee38db95"}}}}}